{
  "contractName": "HelloWorld",
  "abi": [
    {
      "inputs": [],
      "stateMutability": "nonpayable",
      "type": "constructor"
    },
    {
      "inputs": [],
      "name": "greet",
      "outputs": [
        {
          "internalType": "string",
          "name": "",
          "type": "string"
        }
      ],
      "stateMutability": "view",
      "type": "function"
    },
    {
      "inputs": [],
      "name": "howAreYou",
      "outputs": [
        {
          "internalType": "string",
          "name": "",
          "type": "string"
        }
      ],
      "stateMutability": "nonpayable",
      "type": "function"
    }
  ],
  "bytecode": "0x608060405234801561001057600080fd5b506040518060400160405280600b81526020017f48656c6c6f20576f726c640000000000000000000000000000000000000000008152506000908051906020019061005c929190610062565b50610166565b82805461006e90610134565b90600052602060002090601f01602090048101928261009057600085556100d7565b82601f106100a957805160ff19168380011785556100d7565b828001600101855582156100d7579182015b828111156100d65782518255916020019190600101906100bb565b5b5090506100e491906100e8565b5090565b5b808211156101015760008160009055506001016100e9565b5090565b7f4e487b7100000000000000000000000000000000000000000000000000000000600052602260045260246000fd5b6000600282049050600182168061014c57607f821691505b602082108114156101605761015f610105565b5b50919050565b6103dc806101756000396000f3fe608060405234801561001057600080fd5b50600436106100365760003560e01c8063cfae32171461003b578063e3cb65da14610059575b600080fd5b610043610077565b6040516100509190610323565b60405180910390f35b610061610109565b60405161006e9190610323565b60405180910390f35b60606000805461008690610374565b80601f01602080910402602001604051908101604052809291908181526020018280546100b290610374565b80156100ff5780601f106100d4576101008083540402835291602001916100ff565b820191906000526020600020905b8154815290600101906020018083116100e257829003601f168201915b5050505050905090565b60606040518060400160405280600b81526020017f486f772061726520596f75000000000000000000000000000000000000000000815250600090805190602001906101569291906101e7565b506000805461016490610374565b80601f016020809104026020016040519081016040528092919081815260200182805461019090610374565b80156101dd5780601f106101b2576101008083540402835291602001916101dd565b820191906000526020600020905b8154815290600101906020018083116101c057829003601f168201915b5050505050905090565b8280546101f390610374565b90600052602060002090601f016020900481019282610215576000855561025c565b82601f1061022e57805160ff191683800117855561025c565b8280016001018555821561025c579182015b8281111561025b578251825591602001919060010190610240565b5b509050610269919061026d565b5090565b5b8082111561028657600081600090555060010161026e565b5090565b600081519050919050565b600082825260208201905092915050565b60005b838110156102c45780820151818401526020810190506102a9565b838111156102d3576000848401525b50505050565b6000601f19601f8301169050919050565b60006102f58261028a565b6102ff8185610295565b935061030f8185602086016102a6565b610318816102d9565b840191505092915050565b6000602082019050818103600083015261033d81846102ea565b905092915050565b7f4e487b7100000000000000000000000000000000000000000000000000000000600052602260045260246000fd5b6000600282049050600182168061038c57607f821691505b602082108114156103a05761039f610345565b5b5091905056fea2646970667358221220fc8522e34bf55009af6e42791213cc18cda7308e462c29672a1d57e80dd7ef9064736f6c634300080b0033",
  "immutableReferences": {},
  "source": "// SPDX-License-Identifier: GPL-3.0\r\npragma solidity >=0.4.16 <0.8.12;\r\n\r\ncontract HelloWorld {\r\n  string greetings;\r\n\r\n  constructor() public {\r\n    greetings = \"Hello World\";\r\n  }\r\n\r\n  function greet() public view returns(string memory) {\r\n    return greetings;\r\n  }\r\n\r\n  function howAreYou() public returns(string memory) {\r\n    greetings = \"How are You\";\r\n    return greetings;\r\n  }\r\n}",
  "sourcePath": "C:\\Users\\CCL\\Desktop\\HelloWorld\\contracts\\HelloWorld.sol",
  "compiler": {
    "name": "solc",
    "version": "0.8.11+commit.d7f03943.Emscripten.clang"
  },
  "schemaVersion": "3.4.5",
  "updatedAt": "2022-03-10T19:54:21.160Z",
  "devdoc": {
    "kind": "dev",
    "methods": {},
    "version": 1
  },
  "userdoc": {
    "kind": "user",
    "methods": {},
    "version": 1
  }
}